{
  "_format": "hh-sol-artifact-1",
  "contractName": "FtsoPriceFeed",
  "sourceName": "contracts/FtsoPriceFeed.sol",
  "abi": [
    {
      "inputs": [
        {
          "internalType": "address",
          "name": "_registryAddress",
          "type": "address"
        }
      ],
      "stateMutability": "nonpayable",
      "type": "constructor"
    },
    {
      "inputs": [
        {
          "internalType": "string",
          "name": "_symbol",
          "type": "string"
        }
      ],
      "name": "getPriceWithDecimals",
      "outputs": [
        {
          "internalType": "uint256",
          "name": "",
          "type": "uint256"
        },
        {
          "internalType": "uint256",
          "name": "",
          "type": "uint256"
        },
        {
          "internalType": "uint256",
          "name": "",
          "type": "uint256"
        }
      ],
      "stateMutability": "view",
      "type": "function"
    },
    {
      "inputs": [],
      "name": "getSupportedSymbols",
      "outputs": [
        {
          "internalType": "string[]",
          "name": "",
          "type": "string[]"
        }
      ],
      "stateMutability": "view",
      "type": "function"
    },
    {
      "inputs": [],
      "name": "registry",
      "outputs": [
        {
          "internalType": "contract IFtsoRegistry",
          "name": "",
          "type": "address"
        }
      ],
      "stateMutability": "view",
      "type": "function"
    }
  ],
  "bytecode": "0x608060405234801561001057600080fd5b506040516109e73803806109e7833981810160405281019061003291906100db565b806000806101000a81548173ffffffffffffffffffffffffffffffffffffffff021916908373ffffffffffffffffffffffffffffffffffffffff16021790555050610108565b600080fd5b600073ffffffffffffffffffffffffffffffffffffffff82169050919050565b60006100a88261007d565b9050919050565b6100b88161009d565b81146100c357600080fd5b50565b6000815190506100d5816100af565b92915050565b6000602082840312156100f1576100f0610078565b5b60006100ff848285016100c6565b91505092915050565b6108d0806101176000396000f3fe608060405234801561001057600080fd5b50600436106100415760003560e01c80637b10399914610046578063ce1c0e4d14610064578063f18e138714610082575b600080fd5b61004e6100b4565b60405161005b919061029f565b60405180910390f35b61006c6100d8565b604051610079919061040c565b60405180910390f35b61009c60048036038101906100979190610577565b610173565b6040516100ab939291906105d9565b60405180910390f35b60008054906101000a900473ffffffffffffffffffffffffffffffffffffffff1681565b606060008054906101000a900473ffffffffffffffffffffffffffffffffffffffff1673ffffffffffffffffffffffffffffffffffffffff1663ce1c0e4d6040518163ffffffff1660e01b8152600401600060405180830381865afa158015610145573d6000803e3d6000fd5b505050506040513d6000823e3d601f19601f8201168201806040525081019061016e9190610766565b905090565b60008060008060009054906101000a900473ffffffffffffffffffffffffffffffffffffffff1673ffffffffffffffffffffffffffffffffffffffff1663a69afdc6856040518263ffffffff1660e01b81526004016101d291906107f9565b606060405180830381865afa1580156101ef573d6000803e3d6000fd5b505050506040513d601f19601f820116820180604052508101906102139190610847565b9250925092509193909250565b600073ffffffffffffffffffffffffffffffffffffffff82169050919050565b6000819050919050565b600061026561026061025b84610220565b610240565b610220565b9050919050565b60006102778261024a565b9050919050565b60006102898261026c565b9050919050565b6102998161027e565b82525050565b60006020820190506102b46000830184610290565b92915050565b600081519050919050565b600082825260208201905092915050565b6000819050602082019050919050565b600081519050919050565b600082825260208201905092915050565b60005b83811015610320578082015181840152602081019050610305565b60008484015250505050565b6000601f19601f8301169050919050565b6000610348826102e6565b61035281856102f1565b9350610362818560208601610302565b61036b8161032c565b840191505092915050565b6000610382838361033d565b905092915050565b6000602082019050919050565b60006103a2826102ba565b6103ac81856102c5565b9350836020820285016103be856102d6565b8060005b858110156103fa57848403895281516103db8582610376565b94506103e68361038a565b925060208a019950506001810190506103c2565b50829750879550505050505092915050565b600060208201905081810360008301526104268184610397565b905092915050565b6000604051905090565b600080fd5b600080fd5b600080fd5b600080fd5b7f4e487b7100000000000000000000000000000000000000000000000000000000600052604160045260246000fd5b6104848261032c565b810181811067ffffffffffffffff821117156104a3576104a261044c565b5b80604052505050565b60006104b661042e565b90506104c2828261047b565b919050565b600067ffffffffffffffff8211156104e2576104e161044c565b5b6104eb8261032c565b9050602081019050919050565b82818337600083830152505050565b600061051a610515846104c7565b6104ac565b90508281526020810184848401111561053657610535610447565b5b6105418482856104f8565b509392505050565b600082601f83011261055e5761055d610442565b5b813561056e848260208601610507565b91505092915050565b60006020828403121561058d5761058c610438565b5b600082013567ffffffffffffffff8111156105ab576105aa61043d565b5b6105b784828501610549565b91505092915050565b6000819050919050565b6105d3816105c0565b82525050565b60006060820190506105ee60008301866105ca565b6105fb60208301856105ca565b61060860408301846105ca565b949350505050565b600067ffffffffffffffff82111561062b5761062a61044c565b5b602082029050602081019050919050565b600080fd5b600061065461064f846104c7565b6104ac565b9050828152602081018484840111156106705761066f610447565b5b61067b848285610302565b509392505050565b600082601f83011261069857610697610442565b5b81516106a8848260208601610641565b91505092915050565b60006106c46106bf84610610565b6104ac565b905080838252602082019050602084028301858111156106e7576106e661063c565b5b835b8181101561072e57805167ffffffffffffffff81111561070c5761070b610442565b5b8086016107198982610683565b855260208501945050506020810190506106e9565b5050509392505050565b600082601f83011261074d5761074c610442565b5b815161075d8482602086016106b1565b91505092915050565b60006020828403121561077c5761077b610438565b5b600082015167ffffffffffffffff81111561079a5761079961043d565b5b6107a684828501610738565b91505092915050565b600082825260208201905092915050565b60006107cb826102e6565b6107d581856107af565b93506107e5818560208601610302565b6107ee8161032c565b840191505092915050565b6000602082019050818103600083015261081381846107c0565b905092915050565b610824816105c0565b811461082f57600080fd5b50565b6000815190506108418161081b565b92915050565b6000806000606084860312156108605761085f610438565b5b600061086e86828701610832565b935050602061087f86828701610832565b925050604061089086828701610832565b915050925092509256fea2646970667358221220178719de54d84d46d1fab71c4dc83146d207f9b84b737653703039e55ca2b98864736f6c63430008130033",
  "linkReferences": {},
  "deployedLinkReferences": {}
}